{
  "contractName": "CertificateStore",
  "abi": [
    {
      "anonymous": false,
      "inputs": [
        {
          "indexed": false,
          "internalType": "uint256",
          "name": "certificateId",
          "type": "uint256"
        },
        {
          "indexed": false,
          "internalType": "string",
          "name": "name",
          "type": "string"
        },
        {
          "indexed": false,
          "internalType": "string",
          "name": "instituteName",
          "type": "string"
        },
        {
          "indexed": false,
          "internalType": "uint256",
          "name": "id",
          "type": "uint256"
        }
      ],
      "name": "NewCertificate",
      "type": "event"
    },
    {
      "inputs": [
        {
          "internalType": "uint256",
          "name": "",
          "type": "uint256"
        }
      ],
      "name": "certificates",
      "outputs": [
        {
          "internalType": "string",
          "name": "name",
          "type": "string"
        },
        {
          "internalType": "string",
          "name": "instituteName",
          "type": "string"
        },
        {
          "internalType": "uint256",
          "name": "id",
          "type": "uint256"
        }
      ],
      "stateMutability": "view",
      "type": "function",
      "constant": true
    },
    {
      "inputs": [
        {
          "internalType": "string",
          "name": "_name",
          "type": "string"
        },
        {
          "internalType": "string",
          "name": "_instituteName",
          "type": "string"
        }
      ],
      "name": "createRandomCertificate",
      "outputs": [],
      "stateMutability": "nonpayable",
      "type": "function"
    }
  ],
  "bytecode": "0x608060405234801561001057600080fd5b50610741806100206000396000f3fe608060405234801561001057600080fd5b50600436106100365760003560e01c8063663b3e221461003b578063c445ea9e14610155575b600080fd5b6100676004803603602081101561005157600080fd5b81019080803590602001909291905050506102a7565b604051808060200180602001848152602001838103835286818151815260200191508051906020019080838360005b838110156100b1578082015181840152602081019050610096565b50505050905090810190601f1680156100de5780820380516001836020036101000a031916815260200191505b50838103825285818151815260200191508051906020019080838360005b838110156101175780820151818401526020810190506100fc565b50505050905090810190601f1680156101445780820380516001836020036101000a031916815260200191505b509550505050505060405180910390f35b6102a56004803603604081101561016b57600080fd5b810190808035906020019064010000000081111561018857600080fd5b82018360208201111561019a57600080fd5b803590602001918460018302840111640100000000831117156101bc57600080fd5b91908080601f016020809104026020016040519081016040528093929190818152602001838380828437600081840152601f19601f8201169050808301925050505050505091929192908035906020019064010000000081111561021f57600080fd5b82018360208201111561023157600080fd5b8035906020019184600183028401116401000000008311171561025357600080fd5b91908080601f016020809104026020016040519081016040528093929190818152602001838380828437600081840152601f19601f82011690508083019250505050505050919291929050505061040e565b005b600081815481106102b457fe5b9060005260206000209060030201600091509050806000018054600181600116156101000203166002900480601f0160208091040260200160405190810160405280929190818152602001828054600181600116156101000203166002900480156103605780601f1061033557610100808354040283529160200191610360565b820191906000526020600020905b81548152906001019060200180831161034357829003601f168201915b505050505090806001018054600181600116156101000203166002900480601f0160208091040260200160405190810160405280929190818152602001828054600181600116156101000203166002900480156103fe5780601f106103d3576101008083540402835291602001916103fe565b820191906000526020600020905b8154815290600101906020018083116103e157829003601f168201915b5050505050908060020154905083565b60006104198361042b565b90506104268383836104ae565b505050565b600080826040516020018082805190602001908083835b602083106104655780518252602082019150602081019050602083039250610442565b6001836020036101000a0380198251168184511680821785525050505050509050019150506040516020818303038152906040528051906020012060001c905080915050919050565b600060405180606001604052808581526020018481526020018381525090806001815401808255809150506001900390600052602060002090600302016000909190919091506000820151816000019080519060200190610510929190610666565b50602082015181600101908051906020019061052d929190610666565b50604082015181600201555050600060016000805490500390507f0a356ad7e1a31a848399f42456e7c8353c29c1e87794dc911c5104b8ff46cefe81858585604051808581526020018060200180602001848152602001838103835286818151815260200191508051906020019080838360005b838110156105bc5780820151818401526020810190506105a1565b50505050905090810190601f1680156105e95780820380516001836020036101000a031916815260200191505b50838103825285818151815260200191508051906020019080838360005b83811015610622578082015181840152602081019050610607565b50505050905090810190601f16801561064f5780820380516001836020036101000a031916815260200191505b50965050505050505060405180910390a150505050565b828054600181600116156101000203166002900490600052602060002090601f016020900481019282601f106106a757805160ff19168380011785556106d5565b828001600101855582156106d5579182015b828111156106d45782518255916020019190600101906106b9565b5b5090506106e291906106e6565b5090565b61070891905b808211156107045760008160009055506001016106ec565b5090565b9056fea2646970667358221220d791618eee81a922b18ffcfba51d3aa4098618dd668f60de0b07e95eaeab5f3b64736f6c63430006080033",
  "immutableReferences": {},
  "source": "// SPDX-License-Identifier: MIT\npragma solidity >=0.5.4;\ncontract CertificateStore {\n    event NewCertificate(uint certificateId, string name, string instituteName, uint id);\n    struct Certificate {\n        string name;\n        string instituteName;\n        uint id;\n    }\n    Certificate[] public certificates;\n    function _createCertificate(string memory _name, string memory _instituteName, uint _id) private {\n        certificates.push(Certificate(_name, _instituteName, _id));\n        uint MainID = certificates.length -1;\n        emit NewCertificate(MainID, _name, _instituteName, _id);\n    }\n    function _generateRandomId(string memory _str) private pure returns (uint) {\n        uint rand = uint(keccak256(abi.encodePacked(_str)));\n        return rand;\n    }\n    function createRandomCertificate(string memory _name, string memory _instituteName) public {\n        uint randID= _generateRandomId(_name);\n        _createCertificate(_name, _instituteName, randID);\n    }\n}",
  "sourcePath": "/home/helium/Desktop/besu-js_new/contracts/CertificateStore.sol",
  "compiler": {
    "name": "solc",
    "version": "0.6.8+commit.0bbfe453.Emscripten.clang"
  },
  "schemaVersion": "3.2.3",
  "updatedAt": "2020-10-08T09:08:32.087Z",
  "networkType": "ethereum",
  "devdoc": {
    "methods": {}
  },
  "userdoc": {
    "methods": {}
  }
}